:100000000000012079030000610300006303000089
:1000100065030000670300006903000000000000A2
:100020000000000000000000000000006B03000062
:100030006D030000000000006F030000710300006A
:1000400073030000730300003116000099160000CE
:1000500073030000730300007303000073030000C8
:1000600073030000730300007303000073030000B8
:1000700073030000730300007303000073030000A8
:100080007303000073030000730300007303000098
:100090007303000073030000730300007303000088
:1000A0007303000073030000730300007303000078
:1000B0007303000073030000000000000000000054
:1000C0007303000073030000730300007303000058
:1000D00073030000730300007303000000000000BE
:1000E0000000000000000000000000000000000010
:1000F0000000000000000000000000000000000000
:1001000000000000000000000000000000000000EF
:1001100000000000000000000000000000000000DF
:1001200000000000000000000000000000000000CF
:1001300000000000000000000000000000000000BF
:1001400000000000000000000000000000000000AF
:10015000000000000000000000000000000000009F
:10016000000000000000000000000000000000008F
:10017000000000000000000000000000000000007F
:10018000000000000000000000000000000000006F
:10019000000000000000000000000000000000005F
:1001A000000000000000000000000000000000004F
:1001B000000000000000000000000000000000003F
:1001C000000000000000000000000000000000002F
:1001D000000000000000000000000000000000001F
:1001E000000000000000000000000000000000000F
:1001F00000000000000000000000000000000000FF
:10020000364937480A1A02D0072291438D463549AC
:1002100035480A1A06D00722914381F30988022241
:1002200082F3148831483249324A00F045F83248A6
:100230003249334A00F040F832483349334A00F03B
:100240003BF833483349344A00F036F833483449F0
:10025000344A00F031F834483449354A00F02CF87B
:1002600034483549354A00F027F8354835490022E9
:1002700000F02DF834483549002200F028F83448C1
:100280003449091A082903DB0022026004300160A6
:10029000314A90471F482049884205D002680430FF
:1002A00003B4904703BCF7E700208646EC460020E5
:1002B00000212A4A9047FEE7884207D0521A05D00B
:1002C000037801300B700131013AF9D1704788424F
:1002D00002D002700130FAE77047000000000120F0
:1002E00000E00020000001200000012098550000DF
:1002F0000000002034000020D8030000D8030000D4
:10030000164F00009855000000000020000000205B
:10031000644F0000644F0000644F0000644F000011
:10032000644F0000644F0000644F0000644F000001
:1003300098550000CC550000340000203400002007
:100340003400002048090020480900204C09002002
:100350004C0900204C290020A1030000D1240000FA
:10036000FEE7FEE7FEE7FEE7FEE7FEE7FEE7FEE765
:10037000FEE7FEE7704700BF1048804710484FF087
:100380000701884385460F4880470F48016841F4BC
:1003900070010160BFF34F8FBFF36F8FFFF730BF66
:1003A0000A480B490B4A884207D0521A05D00378F5
:1003B00001300B700131013AF9D17047750300002B
:1003C00000000120FD27000088ED00E0644F0000E0
:0803D0000000002000000020E5
:1003D8000048704740090020F0B595B01C46164605
:1003E80008460D4600F0DFFF1A9B0D93CDE908641F
:1003F80000242346082205A928460A948DF82C4093
:100408000C9400F0EEFF079B0293BDF81830ADF88E
:100418000C30BDF81A30ADF80E309DF814308DF858
:10042800114003F00302012A1DD1BDF81440059EB6
:10043800C3F3C203C4F383148DF81030A200082359
:100448000EA9284600F0CDFFC6F3952608AB009309
:10045800224602AB0EA9304600F0BAFB284600F04F
:10046800A6FF15B0F0BD022AF8D1BDF81640C3F3B7
:10047800C203A4098DF810300827082C264628BF87
:1004880008263B4632460EA9284600F0AAFFA41BC0
:1004980008AB02AA31460EA8374400F0FDFB002C39
:1004A800EBD1DBE7014B01221A7070477500002081
:1004B8007047000070B50E4D06460FCD88B06C46EB
:1004C8000FC495E80F0084E80F0008A9002E4FF02C
:1004D8000603084A41F8203D08BF0022064801F0FB
:1004E80065F808B100F02EFC044B1E7008B070BD12
:1004F800644F0000AD04000000000020340000201C
:1005080007B5044B0093044A4023FFF765FF03B087
:100518005DF804FB250500003500002038B50D4BBB
:100528000D4D002018700D4804782D5DD2B21C4680
:1005380065B1043001F04CFF08B100F003FC084B32
:100548001A7812B12378002BFBD038BD0C3001F09B
:1005580039FDF1E77500002020060020000000208A
:100568003400002008B50848084A0378D35C3BB13A
:10057800043001F0C9FE0020BDE80840FFF79ABF2B
:100588000C3001F0BBFCF6E700000020200600203C
:100598000120FFF78FBF000008B5FFF7F9FF04211E
:1005A800034800F083FA034B01225A7108BD00BFCB
:1005B800404F000014000020037813F0040216D006
:1005C80003F00303012B03D0022B09D0012070474D
:1005D8000A6800880232C0F3831002440A60F5E713
:1005E8000B684288023303EB92130B60EEE7104668
:1005F800704700002DE9F04F484C87B00F4605467C
:10060800861C0020019200F0F5FB23683B60D4E9CA
:1006180001231344226801339B1A04F21C4704F592
:10062800836A04F21448B34219D3019A0023002ABA
:100638006CD0012262F3010343F0040365F38913CC
:100648002168A2680A4003320E44002044F8223090
:10065800266000F0D1FB012007B0BDE8F08F012132
:10066800384600F0EBFB504600F0FEFB404600F039
:10067800FBFB0DF118096068D4F808B049F8100DB3
:1006880000EA0B00033004EB80004946FFF794FFB3
:10069800029BB0B90BEA030204EB8202D168039112
:1006A8009A1C013303EA0B0B04EB8B0C01F00303D8
:1006B800012B0292DCF80CB020D0022B04D0834628
:1006C8000BE00BEA0300DDE7BDF80E309B090333AE
:1006D8004FEA1B4B02EB93030293404600F0C7FB23
:1006E80008B1029B63605946384600F0A7FBD4E97D
:1006F80001231344226801339B1A94E7BDF80C3098
:10070800C3F383134FEA1B4B1344E5E7022262F35A
:10071800010343F0040365F39F5391E74801002068
:100728000B4B0C48FF2210B59A600022C3F818241E
:10073800C3E90022C3F8142483F8202400F0ECFD58
:10074800044610B9044800F057FE204610BD00BF0B
:1007580048010020504F0000A44F000030B50A4C5B
:1007680071B10A4A0A49121BD20800239A4201D1E0
:10077800002030BD31F82350854202D00133F5E71F
:10078800034654F83300F4E7184F0000404F0000C8
:1007980000000020094B013903EBC000032909D8E8
:1007A800DFE801F00A020406042070470079704768
:1007B800407970470020704702207047184F0000AA
:1007C800034BD3E90030C31A58425841704700BF61
:1007D800480100202DE9F04385B0FFF7F1FF0646F8
:1007E800002840F0F9807D4DC5F81804BFF34F8FFD
:1007F8006868AC6804AF47F8100D2040033005EB7B
:1008080080003946FFF7D8FE009B18B1D5F81824A8
:10081800002A5FD004EA0302991C013305EB820227
:10082800234005EB8303D268DB68029302F00303DD
:10083800022B0192009162D1BDF8063068484FEA58
:100848009318B8F1500FC14628BF4FF0500969F30B
:100858008F1309F10801ADF8063000F075FD074661
:10086800002800F0A48000F09EFD01A900230822C2
:10087800384600F0ABFD009924EA01060136B600BF
:10088800B14535D95FFA89F97EB3F6B2A9EB060905
:10089800214003315FFA89F4B146524E05EB8101DC
:1008A80008234A46384600F091FD36B109F108039D
:1008B80022463146384600F089FD009B08F10308BE
:1008C80003EB98030093D5F81834002B4BD1D5F8D7
:1008D80010445BE02A689A4204D86A60304605B042
:1008E800BDE8F08304EA030088E73E493446D7E7C9
:1008F8002140033108234A4605EB8101DAE7012B41
:1009080055D1BDF804303648C3F38311062928BFF2
:10091800062161F3891302318900ADF8043000F033
:1009280013FD0746002842D000F03DFD00230822B1
:1009380001A9384600F04AFD0026BDF80420C2F39C
:100948008312B31C96424FEA8303BCD200994A1C17
:1009580021400331009205EB81010422384600F062
:1009680035FD0136E9E7384600F021FDFFF728FF9D
:1009780080F00100C6B2B1E7E3685B7923B1236870
:1009880039461B6820469847E3681C68002CF3D159
:10099800384600F00CFD204600F02CFAD5F8183443
:1009A8000BB9009B6B60002000F026FADEE7D5F853
:1009B800104454B90C4B0D480D49C01AC008000426
:1009C80040F0020000F06EF8D0E7236820469B68EC
:1009D8009847E3681C68ECE700267FE74801002099
:1009E800504F000054010020184F0000384F0000FD
:1009F800B04F00002DE9F74F284C80460F4692462D
:100A080001A9012218469B46D4F80890FFF7F2FD89
:100A180088B3019D0026A91C5E4506EB010234D16E
:100A280000211F4800F0EAF980F310006A1C02EA6E
:100A3800090204EB8202000405EA0903033340EAD1
:100A48001840D06014F8232068F3C50204F8232066
:100A580034F8232066F3891224F8232054F823203D
:100A6800012167F39F2244F8232061F301026FF309
:100A7800820204F8232094F820341BB1FFF7AAFE61
:100A88000028FBD103B0BDE8F08F09EA020204EBAD
:100A980082025AF82630D3600136BDE748010020AB
:100AA8006405002000231A46FFF7A4BF30B50F499C
:100AB800D1F81024002314463CB9C468237152B9F4
:100AC800C1F810042260184630BDE46825799D42BB
:100AD80006D02468F0E7D268116821601060F2E758
:100AE80001330A2BE7D14FF0FF33ECE74801002030
:100AF800094A38B50123D2F8104482F820341D463B
:100B080004B938BDE3685D71236820465B6898477F
:100B1800E3681C68F4E700BF48010020037A052B4E
:100B280010B50C460FD0437A23B1084A084920462D
:100B380000F0F7F90749204600F0F3F92046BDE830
:100B4800104000F0E3B9002AF8D0F3E7FB4F0000AB
:100B58000050000020500000C38873B504460D46BD
:100B680033B1144A00921449144A284600F0D9F9BE
:100B7800217A05291CD0637A4BB1A088FFF70AFEB9
:100B88000F4B104953F82020284600F0CAF9227A62
:100B98000D4BA08853F822600021FFF7DFFD0B49B9
:100BA80003463246284602B0BDE8704000F0B9B9A5
:100BB80002B070BDFB4F00000B5000000350000056
:100BC800C84F0000005000003050000023500000C3
:100BD8002DE9F04385B01F460C9D002306460C46C0
:100BE800904695F80C902B7329463846FFF7B4FFCA
:100BF800B8F1060F09D8DFE808F00412181F2833E7
:100C080040003146284600F08CF900222946384633
:100C1800FFF784FF85F80C9005B0BDE8F0832268E3
:100C28003146284600F07DF9EFE7D4E90023314644
:100C3800284600F076F9E8E7A36800933146D4E93E
:100C48000023284600F06DF9DFE7E3680193A36805
:100C580000933146D4E90023284600F062F9D4E72E
:100C680023690293E3680193A36800933146D4E9AA
:100C78000023284600F055F9C7E763690393236901
:100C88000293E3680193A36800933146D4E90023F3
:100C9800284600F046F9B8E708292DE9F84F8046BC
:100CA8000E4617461C4636D8002593F80C901D733F
:100CB80019461046FFF750FFDFF87CA0DFF87CB03C
:100CC800AE422AD918F805205946204600F029F9DD
:100CD8000135082DF4D11649DFF864B0204600F03C
:100CE80020F90025AE421DD918F805A0504602F09B
:100CF80011FD002814BF52462E225946204600F006
:100D080010F90135082DEDD1012221463846FFF7AB
:100D180005FF84F80C90BDE8F88F5146204600F096
:100D280000F9D5E70349204600F0FBF8E9E700BFE2
:100D3800F64F0000F44F0000F24F0000EC4F0000A7
:100D4800F84F00001FB50021039001AA44F20100EA
:100D5800CDE9011100F004F805B05DF804FB0000CE
:100D680010B572B6FFF7C4FEFFF734FD0028FBD1BB
:100D7800104B114C1149E41AE408240444F0010012
:100D8800FFF790FE0E4B1B68DB0700D500BE0D4930
:100D980044F00200FFF786FEBFF34F8F0A490B4B62
:100DA800CA6802F4E0621343CB60BFF34F8F00BF01
:100DB800FDE700BF184F0000384F00008F500000BB
:100DC800F0ED00E09B50000000ED00E00400FA05A3
:100DD80072B6024A13680133136070470406002094
:100DE800034A1368013B136003B962B6704700BF3A
:100DF80004060020FFF7ECBFFFF7F2BF50E8002F12
:100E08000B4640E8003C9CF0000FF7D110467047B5
:100E180050E8003F43EA010240E8002C9CF0000F34
:100E2800F6D11046704750E8002F02EA010340E867
:100E3800003C9CF0000FF6D11046704750E8003F88
:100E480003EB010240E8002C9CF0000FF6D110469D
:100E5800704750E8003FA3EB010240E8002C9CF0EB
:100E6800000FF6D1104670470121FFF7D1BF0021CE
:100E7800FFF7D9BF10B590B1D0E9012301689B1ADB
:100E8800DBB20A60013BDBB2FF2B026802D1002013
:100E9800107110BD11684C1C14600B70F2E70E2025
:100EA800F7E738B504460020FFF7A4FF2268636817
:100EB8001168994213D9481E106011F8015CE36863
:100EC800218A01FB0535A36811791B1ADBB2994207
:100ED80000D213710020FFF78FFF284638BD002588
:100EE800F8E738B5054600200C46FFF783FF2A6867
:100EF8001368591C1160E968641A298AB4FBF1F473
:100F08001C700020BDE83840FFF776BF826810B536
:100F180004462AB143690168006998470023A36021
:100F280010BD0EB403B5039929B102AA04AB42F867
:100F3800043D00F06BF802B05DF804EB03B07047B5
:100F4800826830B40468551C8560A154D0E9013228
:100F58009A4202D330BCFFF7D9BF30BC70470000BB
:100F68002DE9F84F9946DDE90A4317468246884637
:100F78000A460126BA420FD24E4538BF4E4613F0F4
:100F8800010B01D164B900240125B9F1010F1AD967
:100F980009F1FF397D43F8E7B2FBF7F20136E9E7DB
:100FA8009B070ED5B9F1000F0CBF30252025A642AE
:100FB800EAD2013C29465046FFF7C2FF002CF6D181
:100FC800E1E72025F3E7B8FBF5F39F42E2D9DFF824
:100FD8003890B8FBF5F3504619F8031005FB138851
:100FE800FFF7AEFFB5FBF7F5002DF2D1BBF1000F0F
:100FF80002D00CB1A64201D3BDE8F88F202150469B
:10100800013CFFF79DFFF4E7A85000002DE9F74FDA
:10101800054690460E46002900F03A8116F8011B55
:10102800002958D0252940F0D180002702E047F058
:1010380001071646324612F8013B2D2BF7D0302B0C
:1010480004D02B2B05D147F00407F2E747F002073D
:10105800EFE700242A2B06F101021BD1D8F8003053
:10106800191D1B68C8F800101C44164633782E2B2F
:101078001CD101364FF0000A314611F8012BA2F1BC
:101088003000092814D80A2303FB0A23A3F1300AE5
:101098000E46F1E712F8013CA3F130010929E5D821
:1010A8000A2101FB0434303C1646D3E74FF0000A0E
:1010B800324612F8011B01F0FB0068281646F8D0EA
:1010C800692916D054D8582970D00ED825297DD032
:1010D8003378002BA2D12B7B002B00F0D980284637
:1010E80003B0BDE8F04FFFF711BF632968D064294A
:1010F800EED1D8F80020D2F80090111D89EAE972E3
:10110800C8F80010A2EBE9724FF0010B092A61DC64
:10111800D34538BFD3462CB1B9F1000F01DB7907AD
:1011280000D5013CBA0702D5BAF1000F04D0FB077D
:1011380002D4002C54D10024B9F1000F58DAC9F1B7
:1011480000092D212846FFF7FBFE07F00302022ABB
:1011580005D1BAF1000F02D1002C4DD10024CDE900
:10116800004753460A2249462846FFF7F9FEAFE7EB
:10117800732954D016D87029AAD1D8F800301A1D6E
:10118800C8F80020302128461C68FFF7D9FE7821CE
:101198002846FFF7D5FE00220823CDE90032214674
:1011A8001022E1E775292FD0782991D1D8F80010BD
:1011B8000A1DC8F80020CDE90047534610222CE04C
:1011C800D8F800301A1D1978C8F800202846FFF70B
:1011D800B7FE7DE70A230BF1010B92FBF3F295E7CB
:1011E800A345A9D220212846013CFFF7A9FEA0E784
:1011F8007807AAD52B21A5E7A345B0D230212846E8
:10120800013CFFF79DFEA7E7D8F80010CDE900479D
:101218000A1DC8F8002053460A220968A4E7D8F82E
:1012280000301A1DC8F80020F907D3F8009012D52D
:101238004F46A7EB090B17F8011B41B9A345BFF4AB
:1012480047AF20212846013CFFF77AFEF6E72846FB
:10125800FFF776FEEDE7B9F1000F17D0484602F028
:1012680005FB0746BC4200D954B909F1FF3919F802
:10127800011F00293FF42CAF2846FFF761FEF6E76F
:1012880020212846013CFFF75BFEEBE74F46E9E7E4
:1012980003B0BDE8F08F2DE9F047B0F80690447927
:1012A800D2F800A09DF8208009FB04F4043C06460F
:1012B8000AEB0300A0420F4688BFA4EB030A191DDE
:1012C800C2F800A0B1FBF9F509FB15114DB9A9EB5E
:1012D8000104544528BF5446BAF1000F04D1BDE8B3
:1012E800F0873668013DF1E704317B197018224612
:1012F800B8F1000F0ED001461846AAEB040A02F016
:1013080037FAD145254436684C464FF0000128BFCE
:101318005446E1E71946F0E7FFF7ACBDF8B5467962
:101328000146721E0546002393422D6803D300240C
:10133800A64202D8F8BD0133F6E70F682846FFF742
:10134800D0FD01343946F3E72DE9F843068ACD1C70
:101358000746FFF7A6FD043E35440446B5FBF6F5FF
:10136800F0B14FF48073EDB28380C680013D076011
:1013780081464FF00008A84512D23846FFF791FD84
:10138800064648B163790133637108F10108C9F869
:10139800000007608146EEE72046FFF7BFFF3446AE
:1013A8002046BDE8F88301210430FFF747BD10B59A
:1013B800012104460430FFF74CFD10F0FF0F04D163
:1013C8002046BDE81040FFF7A9BF10BD1FB504AC0B
:1013D80044F8042D002200922246FFF75CFF04B077
:1013E80010BD1FB504AC44F8042D0122009222461A
:1013F800FFF751FF04B010BD836800225A609A605D
:10140800C3E90422DA601A60704700001FB5037848
:101418008DF8003003798DF8043043798DF8053064
:1014280083688DF80630C3688DF807300369029326
:1014380043690393054A064B684653F8213052F82E
:101448002110984705B05DF804FB00BF080600208E
:1014580010060020024B4FF4807043F00103184738
:10146800C05000002DE9F04791460778324A42F80B
:101478002790324A42F827304B7B80460C4663B3AC
:101488000868496882008B0002F1A04203F1A0437A
:1014980040F20C65C2F800570126C3F800574FF018
:1014A800A04506FA00F006FA01F1C5F80805C5F8E6
:1014B800081540F20D61C2F80017C3F80017FFF7CE
:1014C800C9FF4FF0000AD5F81025636822FA03F324
:1014D800DB070FD5BAF1000F1FD1B9F1000F3B465A
:1014E800174A214608F1040008BF0022BDE8F0476A
:1014F80000F070B9236806FA03F3C5F80C35FFF756
:10150800A9FF236806FA03F3C5F808350AF1010AAA
:10151800FFF7A0FFBAF1090FD5D1636801254FF095
:10152800A04605FA03F3C6F80C35FFF793FF636886
:101538009D40C6F80855D0E7100600200806002090
:10154800151400001FB503788DF800304368019327
:10155800037A8DF80830C3680393054A054B68463B
:1015680053F8213052F82110984705B05DF804FB74
:10157800180600201C0600201FB503788DF80030DF
:101588004368019383688DF80830C3680393054A5C
:10159800054B684653F8213052F82110984705B09A
:1015A8005DF804FB180600201C060020F0B5194B56
:1015B800067891F81DE043F82620174B94460A69EF
:1015C80043F82620154B03F806E00C4607460FCCD7
:1015D80089B06D460FC594E80F0085E80F000496A2
:1015E800BEF1000F0AD0BCF1000F0D4A694608BFD2
:1015F8000022381D00F0C0FD09B0F0BDBCF1000F9D
:10160800084A694608BF002207F10C0000F0B6FB43
:10161800F2E700BF1C060020180600202006002064
:101628004D15000081150000014B1B68184700BFCD
:101638002406002038B50A4B98420D460CD10020EC
:10164800FFF7D8FB074B1C7914B901221D601A71EA
:101658000020FFF7D1FB0CB9002038BD1120FCE7B2
:101668000020004024060020034B984201BF034B92
:1016780000221A601A7170470020004024060020DA
:101688000023435082B043580193019B02B0704736
:10169800F0B54C4A4C4CD2F8243187B01546A3B16A
:1016A8004FF492711046FFF7EBFFD2F8043163B99B
:1016B800A368C2F808330223A360A368C2F80433FE
:1016C80001231362536107B0F0BDD5F80431002B34
:1016D80049D03E4F3B484FF48271FFF7D1FF0FCFFF
:1016E80001AE0FC63B68336094F82E307BB1237B84
:1016F800012B0CBFD5F83C25D5F84C250292022BBE
:10170800304B0CBFD3F83C35D3F84C3503934FF42A
:10171800B0712C48FFF7B4FF4FF4AE712948FFF7BA
:10172800AFFF94F8303013B194F82E303BB1254B0D
:101738000022C3F80022A260254AC3F80823214AE0
:10174800D2F8C434C2F8C4349A0736D501238DF8C8
:10175800003094F830300BB984F82F30D4E90031D8
:1017680068469847AFE74FF4A4711648FFF788FF1B
:10177800237B83B9154F0FCF01AE0FC63B6833608B
:1017880094F83030002BDAD1C5F80032A360104B42
:10179800C5F80833D3E74FF40073C5F8003240F2B8
:1017A8000223A36003F1CE73C5F80833A368C5F814
:1017B80004330123AB602B6285E713F0040318BFE1
:1017C8000223C4E7003000402C0600203806002021
:1017D80002029C012DE9F84F0579364C4FF0340888
:1017E80008FB05F804EB08079B4697F82D3081465F
:1017F8000E469246002B59D12F490068FFF71AFF71
:10180800002855D13168737B87F8323001F5E072D2
:101818004FF0A043B860C7F804B087F82F0087F8E6
:10182800300040F20C6744F808A043F82270726850
:1018380002F5E07C43F82C70D9F80030C3F808159D
:10184800C3F80C25B268C3F82425BAF1000F25D0D7
:101858001A0B53B2317B002BA8BF03F16046D2B2FA
:101868004FEA5313B8BF02F00F074FEA4111B4BF54
:10187800124E06F561464FEA8303C9B203F160438D
:10188800B4BFF15586F8001303F5614302F01F0257
:10189800012101FA02F2C3F880211A60342303FB04
:1018A8000544012384F82D30BDE8F88F0820FBE7B4
:1018B8001120F9E72C0600209916000014ED00E02D
:1018C800026803790621C2F80015044A342101FB95
:1018D8000323022283F82D20704700BF2C06002026
:1018E8002DE9F843CB6803F06043B3F1005F0D4680
:1018F800904603D010221046BDE8F8830779944E2D
:101908000468944BC4F808334FF0340C0CFB076C94
:101918009CF82F302BB1DCF80830C4F804331122BE
:10192800E9E712F0140F0CBF012300238CF82F30C5
:101938008946B9E80F000CF10C0EAEE80F00D9F893
:101948000030CEF80030C8F300138CF830306B78D4
:10195800C4F888354FF482712046FFF791FE4FF4A2
:101968009271FFF78DFE18F0010318BF0123C4F828
:10197800503518F0020318BF0123C4F840352B78FE
:10198800032B00F2C380DFE803F083AB67022B6907
:1019980003F06043B3F1005FACD14FF48073EA68A1
:1019A800C4F800326B68C4F844254FF4A871C4F831
:1019B8004835FFF765FE4FF4B071FFF761FE4FF44D
:1019C800A471FFF75DFE01232362A360D4F85031B0
:1019D800002BFBD04FF4A8712046FFF751FEAB68EF
:1019E8002A69C4F84425C4F848355B4A342303FB04
:1019F80007639A604FF482730821002218F0080FD9
:101A080004D1287803281CBF012060503421794371
:101A18007018715800297ED10125234419680029BE
:101A280000F086803421D4F8C434C4F8C43401FBEF
:101A38000766002186F82F10002B3FF45CAF13F0E7
:101A4800020F48F2012208BF032213F0040F48F2E4
:101A5800022318BF1A464EE76B68EA68C4F84425A3
:101A6800C4F848352B6903F06042B2F1005F7FF497
:101A780041AFAA68C4F834354FF48453C4F8382504
:101A8800C4F80032342303FB076340F20222B0E7B4
:101A98006B68EA68C4F8442518F0200FC4F8483584
:101AA8004FF0340310D003FB07634FF48072C4F87F
:101AB8000022294A9A604FF4A471FFF7E1FD4FF420
:101AC800A4730122226297E74FF4007203FB0763B5
:101AD800C4F8002240F202229A604FF48273F0E7C1
:101AE8006B68EA68C4F83425C4F838354FF4805375
:101AF800C4F80032342303FB076340F202229A60E1
:101B08000123236200214FF4827376E74FF4827336
:101B18000821072272E718F0040F1CBF4FF4007366
:101B28008360342303FB0766B368C4F80433E2E632
:101B3800D4F8241100293FF471AF4FF49271204674
:101B4800FFF79EFD25624FF48273656165E700BF6C
:101B58002C06002002029C0100020400F0B587B0A8
:101B680004460F4615460021142201A81E4601F01E
:101B780028FE9DF830308DF80570002B14BF202208
:101B8800002201A9204602960495FFF7A9FE07B096
:101B9800F0BDF0B587B004460F4615460021122265
:101BA8000DF106001E4601F00CFE0123002201A9DA
:101BB80020468DF804308DF8057002960495FFF7DD
:101BC8008FFE07B0F0BD0023435082B04358019305
:101BD800019B02B070470A4610B54FF48E71FFF7AB
:101BE800F2FF136A9168C95C136A01331362C0F883
:101BF8001C1510BD8B690A4610B54FF4847123B9C2
:101C0800FFF7E1FFD0F8183510BDFFF7DCFF536A86
:101C1800D168D0F81805C854536A01335362F3E702
:101C28001FB501238DF80030044BCDE90110D3E92D
:101C380000126846904705B05DF804FB6006002076
:101C480030B54C4AD2F8043313F4007F85B01546FA
:101C58004FD0D2F82431002B4BD04FF4927110465C
:101C6800FFF7B1FF4FF40173C2F80833424B93F802
:101C7800291009B9012151603E4902228DF800203E
:101C8800D1F88024C1F8802403929A690292DA6814
:101C980001920022C3E906226846D3E90012904760
:101CA8003448D0F81C315BB133490A6A4B699A420F
:101CB8000A464BD291F82830002B47D1FFF78BFF0B
:101CC8002C4AD2F8443193B14FF4A2711046FFF771
:101CD8007AFF294B93F8291009B1012111609A69FB
:101CE8002AB100229A61586AD968FFF799FF05B0AE
:101CF80030BDD5F804335B07D2D5D5F80831002BB1
:101D0800CED01D4C1B482146FFF774FF636AA269B9
:101D18009A422346C4D1E269E1684AB12369E36083
:101D28000023606AA261E3616362FFF779FFB7E7A6
:101D380094F829200AB901226A600E4A4FF401700A
:101D4800C2F8080300229A61586AEEE74FF48E71D0
:101D58000848FFF738FF51690029B1D000230291E4
:101D680091688DF80030019153616846D2E90013FB
:101D78009847A5E700200040600600202DE9F843B9
:101D88005A4B047991462C2202FB0432064692F8FB
:101D98002A200D469846002A40F0A380544900683E
:101DA800FFF748FC0746002840F09D802968336803
:101DB800481C0BD04FF0A04001228A40C0F80825EB
:101DC80001F5E0724FF0030C40F822C06868421C2D
:101DD8001FBF00F5E0724FF0A04C4FF0000E4CF81A
:101DE80022E0AA6995F814C0C3F824256A7DBCF1DD
:101DF800010F4CEA0202C3F86C25C3F81405C3F8B6
:101E08000C151DD1AA68511C1FBF02F5E0714FF0D7
:101E1800A0404FF0000C40F821C0E968481C0BD0E6
:101E28004FF0A04C01208840CCF8080501F5E0707F
:101E38004FF0030E4CF820E0C3F80815C3F810253E
:101E48002C23634308EB0302C2F804902A6948F87C
:101E58000320B9F1000F31D04FF48E7130682D7F17
:101E6800FFF7B1FE30684FF4A271FFF7ACFE32689D
:101E7800204BC2F80433120B53B2002BA8BF03F156
:101E880060404FEA53134FEA4511BABF1A4802F0AF
:101E98000F0500F561404FEA8303C9B203F16043BF
:101EA800B4BF415580F8001303F5614302F01F02E7
:101EB800012101FA02F2C3F880211A603368042272
:101EC800C3F800252C2303FB04830022C3E9062260
:101ED80083F829205A61012283F82A203846BDE870
:101EE800F8830827FAE71127F8E700BF6006002003
:101EF800491C00008000020014ED00E0F8B50479E8
:101F080000682D4D0023C0F800352C2303FB045333
:101F18005B6873B1294BC0F80833020B53B2012137
:101F28005B0902F01F0201FA02F22033244941F84A
:101F38002320D0F80C65D0F81415D0F80835D0F85F
:101F480010254FF0FF37BE42C0F8147518BF06F5CC
:101F5800E076C0F80C75C0F80875C0F810751EBF9B
:101F68004FF0A0474FF0020C47F826C04E1C1FBF89
:101F78004FF0A04601F5E071022746F82170511C88
:101F88001FBF4FF0A04102F5E072022641F822601F
:101F98005A1C1FBF03F5E0734FF0A042022142F81C
:101FA8002310FFF761FB2C2303FB0454002384F860
:101FB8002A306360F8BD00BF60060020840202007A
:101FC80000E100E02DE9F843224F06794FF02C0993
:101FD80009FB067480466569002D37D16261A160EE
:101FE80025624FF48E71006884F82850FFF7EBFDE6
:101FF800D8F80000012383602146FFF7ECFD6368F1
:10200800A1462BBBD8F80050226A63699A4212D3C2
:10201800D8F80030D3F81C21002AFBD00122DA605E
:1020280000202C2303FB067600237361BDE8F883A8
:1020380094F8283043B9D5F81C31002BF8D049461C
:102048002846FFF7C8FDDFE70F20EAE71120EDE794
:102058002846EBE7600600200023435082B043582F
:102068000193019B02B070471FB501238DF8003022
:10207800054B8DF8080001916846D3E90012904796
:1020880005B05DF804FB00BF8C0600207FB5384A18
:10209800D2F82461002E49D010464FF49271FFF710
:1020A800DBFF02238DF80030D2F88034C2F8803488
:1020B8000393D2F83C358DF808302E4BDA6801923C
:1020C8000022C3E906226846D3E900129047284A4D
:1020D800D2F8443173B14FF4A2711046FFF7BCFF38
:1020E800244B996931B100219961D2F83C05D9682E
:1020F800FFF7BAFF1E4AD2F82031ABB14FF4907106
:102108001046FFF7A9FF1B4B596969B1D2F84C1566
:102118008DF80810002299688DF8002001915A6105
:102128006846D3E90012904704B070BDD2F8103168
:10213800002BCCD04FF488711046FFF78DFF0D4B64
:10214800D2F83C0599698842C1D1DC69D96864B183
:10215800D2F8005225F02005C2F800521A699C6195
:10216800DA60DE61FFF780FFB1E79C61FAE700BF44
:10217800002000408C0600202DE9F8435E4B0679CC
:102188009146242202FB0632044692F820200D468E
:102198009846002A40F0AB8058490068FFF74AFA91
:1021A8000746002840F0A58029682368481C0BD002
:1021B8004FF0A04001228A40C0F8082501F5E072DE
:1021C8004FF0030C40F822C06868421C1FBF00F59E
:1021D800E0724FF0A04C4FF0000E4CF822E0AA69D4
:1021E80095F814C0C3F824256A7DBCF1010F4CEAA8
:1021F8000202C3F86C25C3F80C15C3F814051DD1E9
:10220800AA68511C1FBF02F5E0714FF0A0404FF0C3
:10221800000C40F821C0E968481C0BD04FF0A04CD6
:1022280001208840CCF8080501F5E0704FF0030E56
:102238004CF820E0C3F80815C3F81025242373438D
:1022480008EB0302C2F804902A6948F80320B9F1A0
:10225800000F3BD04FF4887120682D7FFFF7FCFEFC
:102268004FF490712068FFF7F7FE4FF492712068E1
:10227800FFF7F2FE20684FF4A271FFF7EDFE226827
:102288001F4BC2F80433120B53B2002BA8BF03F143
:1022980060404FEA53134FEA4511BABF194802F09C
:1022A8000F0500F561404FEA8303C9B203F16043AB
:1022B800B4BF415580F8001303F5614302F01F02D3
:1022C800012101FA02F2C3F880211A60236808226A
:1022D800C3F80025242303FB06830022C3E9062252
:1022E8005A61012283F820203846BDE8F883082780
:1022F800FAE71127F8E700BF8C06002095200000B8
:102308001003020014ED00E0F8B5047900682D4DC3
:102318000023C0F80035242303FB04535B6873B122
:10232800294BC0F80833020B53B201215B0902F0B4
:102338001F0201FA02F22033244941F82320D0F881
:102348000C65D0F81415D0F80835D0F810254FF0E2
:10235800FF37BE42C0F80C7518BF06F5E076C0F826
:102368001475C0F80875C0F810751EBF4FF0A04767
:102378004FF0020C47F826C04E1C1FBF4FF0A04676
:1023880001F5E071022746F82170511C1FBF4FF07C
:10239800A04102F5E072022641F822605A1C1FBFD4
:1023A80003F5E0734FF0A042022142F82310FFF733
:1023B8005BF9242303FB0454002384F82030636072
:1023C800F8BD00BF8C0600201003020000E100E009
:1023D80001F06043B3F1005F2DE9F041074632D1C7
:1023E8001C4B0679242505FB063598466C6964BBA9
:1023F8006A61A96000684FF49071FFF72DFE4FF4F1
:10240800AC713868FFF728FE3B686A69A968C3F8A9
:102418004415C3F8482501229A606A68BAB9D3F806
:102428002011D3F8582149B9002AF8D00F202423C5
:1024380003FB068600237361BDE8F081002A14BF00
:102448000F200020F3E71020F6E71120F4E72046DC
:10245800F2E700BF8C0600201FB51B211A22CDE928
:1024680000124FF0CC7200230292022203936946B5
:102478008DF80C2006481A46FEF7F4FF08B1FEF75F
:1024880061FC0448FFF71CFA05B05DF804FB00BFC7
:10249800E8500000EC50000008B50A4800F092FB34
:1024A80008B1FEF74FFC00F0A7FB00F0BFFB4B2084
:1024B80000F0F0FB4B2000F009FCBDE8084000F0FC
:1024C800CFBB00BFE85000002DE9F04F002189B0D4
:1024D8000846FEF725F908B1FEF734FCFEF75CF86C
:1024E800284800F02FF9FEF775F90028FBD1FFF70F
:1024F800B3FFFFF7D1FF00F0BBFA4FF0A043032270
:10250800C3F848272048DFF894B000F01BF91F4BA8
:1025180043F0010301934FF0000A64244FF47A401A
:10252800019B9847013CF9D1DDE90289DDE90445C1
:10253800DDE9066702A800F0E3FA42464B46144874
:1025480000F000F922462B46124800F0FBF832460C
:102558003B46114800F0F6F852465B4620462946AD
:1025680000F0E1FF4FF0A0434FF4802230B1C3F8F0
:102578000C25FEF72FF90028FBD1CEE7C3F8082574
:10258800F7E700BFF85000001D510000E0500000C0
:10259800425100004C510000565100000000E03F3D
:1025A8000369C1688B429DBF8268D21802F1FF326D
:1025B80003F1FF3394BF501A581A70472DE9F041C0
:1025C800D0E902670446F61B4068964288461546DD
:1025D800384405D901F0CCF83D44E560BDE8F08108
:1025E8003246AD1B01F0C4F82A4608EB06016068C4
:1025F80001F0BEF8F1E72DE9F843C56806468946BB
:1026080017464FF000083469B3687068A54228BFC0
:10261800E418013C621B5C1BBC4228BF3C46944248
:1026280028BF144649462844224601F0A1F8B36859
:102638002544AB4208BF00253F1BA044A144F560D8
:10264800E1D14046BDE8F88310B5114C114AA261AA
:102658000223C4E90433104BE361A2644FF400730E
:102668000E4A2362E264002310220D49A362E01D92
:102678006362E362A3656365E365226501F0D4F8EC
:102688000849204601F0D0F82023A37110BD00BFEF
:10269800B0060020605100003807002028070020FD
:1026A800695100006D510000F8B5184C182300FB63
:1026B800033503FB00402544C46A012C0F46164627
:1026C80011D003D3022C1BD000240AE02846FFF7C0
:1026D80067FF864205D8324639462846FFF76EFF1F
:1026E80034462046F8BD2846FFF75AFF864234464E
:1026F80028BF0446224639462846FFF75FFFF0E721
:102708002846BDE8F840FFF776BF00BFB0060020B6
:1027180070B50B4B1B7804460D4616460BB9FFF7F0
:1027280093FF0020FEF766FB324629462046FFF756
:10273800BBFF04460020FEF75FFB204670BD00BFCC
:10274800B00600200FB410B5A2B024AB802153F816
:10275800042B019302A800F0FDFF802804460ADD3F
:10276800802202A90020FFF7D3FF204622B0BDE84F
:10277800104004B070470028F7DD0246F1E700007A
:102788000C4B1B78062B10D10B4B1B681A070CD16E
:102798000A4B186800F0F003302B08D000F0E00076
:1027A800A0F140035842584170470020704701206B
:1027B800704700BFE00F00F0E40F00F0E80F00F0F2
:1027C800094B1B78062B0CD1084B1B681A0708D13C
:1027D800074B186800F0F000A0F130035842584148
:1027E80070470020704700BFE00F00F0E40F00F0D2
:1027F800E80F00F008B5FFF7C3FF28B17D4B7E4A0C
:102808001B68C3F304231360FFF7DAFF10B17B4B97
:102818007B4A1A60FFF7B4FF28B17A4B7A4A1B68E3
:10282800C3F342331360FFF7CBFF20B1774AD36875
:1028380023F08073D360FFF7A3FF40B14FF08043CC
:102848000022C3F80C21C3F81021C3F83825FFF77C
:10285800B7FF10B16E4B03221A60FFF7B1FF40B10A
:102868006C4B05221A6001229A6700229A603F2267
:102878005A60694B1B78062B50D1684B1B681907A7
:102888004CD1674B1B6803F0F003502B46D14FF037
:102898008052644BD2F80414C3F82015D2F80814F7
:1028A800C3F82415D2F80C14C3F82815D2F810145C
:1028B800C3F82C15D2F81414C3F83015D2F818142C
:1028C800C3F83415D2F81C14C3F84015D2F82014F4
:1028D800C3F84415D2F82414C3F84815D2F82814BC
:1028E800C3F84C15D2F82C14C3F85015D2F830148C
:1028F800C3F85415D2F83414C3F86015D2F8381454
:10290800C3F86415D2F83C14C3F86815D2F840141B
:10291800C3F86C15D2F84424C3F87025FFF730FFCC
:1029280028B1414B414A1B6803F04F031360FFF77E
:1029380027FF48B14FF08043D3F80024D20744BFA3
:102948006FF00102C3F80024394B1B68062B08D12D
:10295800384B1B68062B01BF374A136843F4806362
:102968001360364AD2F8883043F47003C2F88830CE
:10297800BFF34F8FBFF36F8F4FF01023D3F80022B0
:10298800002A03DBD3F80432002B2FDA2C4B012268
:10299800C3F80425D3F80024002AFBD04FF01022F6
:1029A8001521C2F80012D3F80024002AFBD04FF0FA
:1029B80010231522C3F80422214B1A46D3F8001419
:1029C8000029FBD00021C3F80415D2F80034002BED
:1029D800FBD0BFF34F8F19491A4BCA6802F4E06263
:1029E8001343CB60BFF34F8F00BFFDE7164B174A69
:1029F8001A6008BD240300104035014074C0074028
:102A08000DF0ADBA440200103C050040F0ED00E0C6
:102A1800A005004010560040E00F00F0E40F00F061
:102A2800E80F00F000C0004058020010E40E00401B
:102A380030010010340100103C17004000ED00E0A8
:102A480000E001400400FA051C0000200090D003BB
:102A580013B5064B1C6800230093D3B20A460146FF
:102A6800201DFFF77BF802B010BD00BF4009002011
:102A780007B502A9322301F8043D01225320FFF7CC
:102A8800E7FF08B1FEF75EF903B05DF804FB00004C
:102A980008B5FFF7EDFF074B074A186853210623CF
:102AA8000430FFF776F818B1BDE80840FEF74AB9D8
:102AB80008BD00BF4009002038090020F8B50746C6
:102AC80015460E46FFF7E4FF094B5A781C7844EA8E
:102AD800022424B23C60DA78987840EA022000B2F6
:102AE80030605A791B7943EA02231BB22B60F8BD88
:102AF80038090020014600F108020431FFF7DEBF63
:102B08002DE9F04314A3D3E900238BB0CDE90423C6
:102B180013A3D3E90023CDE9062313A3D3E90023A4
:102B280001AE05463046CDE90823FFF7E3FF04AFC1
:102B38000024F7E8028956F8240000F0E3F842463A
:102B48004B4600F0BFFA0134032CE5E80201F0D14E
:102B58000BB0BDE8F08300BF9F27F96C78D56E3FB6
:102B68000E7F8FF27ACD6E3F200FD8309E9C6C3F3F
:102B780073B51C460F4B1546186802AA012302F8C4
:102B8800011D04305321FFF704F8064608B1FEF78B
:102B9800D9F80948FFF7D6FD214646B99DF8073010
:102BA800AB4204D10548FFF7CDFD02B070BD044823
:102BB800F9E700BF40090020745100009751000058
:102BC800AD51000013B50A4B02A918602D2321F856
:102BD800043D02225320FFF73BFF064B9DF80520DA
:102BE80000210446FFF7C4FF204602B010BD00BF15
:102BF80040090020F951000013B502A941F22D0344
:102C080021F8043D02225320FFF722FF044608B1B1
:102C1800FEF798F8044B9DF8052000212046FFF7A1
:102C2800A7FF02B010BD00BF0A52000013B502A9E9
:102C380040F62D0321F8043D02225320FFF708FF38
:102C4800044608B1FEF77EF8044B9DF805200021E4
:102C58002046FFF78DFF02B010BD00BFF151000004
:102C680013B502A940F6313321F8043D022253205E
:102C7800FFF7EEFE044608B1FEF764F8044B9DF832
:102C8800052000212046FFF773FF02B010BD00BFEA
:102C98000052000013B580F3080025238DF80500C5
:102CA800022201A953208DF80430FFF7D1FE044613
:102CB80008B1FEF747F8044B9DF80520002120468F
:102CC800FFF756FF02B010BDE651000013B580F3C0
:102CD800080024238DF80500022201A953208DF84D
:102CE8000430FFF7B5FE044608B1FEF72BF8044B95
:102CF8009DF8052000212046FFF73AFF02B010BDDD
:102D0800DD510000004204BF0146704710F0004248
:102D18004FEA125242F4806242F01D0200D540424E
:102D2800B0FA80F18840521AC30A400503EB0251F9
:102D3800704750EA010308BF704711F000424FEA9C
:102D4800125242F4806242F03D0240F104800023B6
:102D5800404263EB0101002902BF01460020203AEE
:102D6800B1F5803F3FBF103A090441EA1041000421
:102D7800B1F1807F3FBF083A090241EA10610002C1
:102D8800B1F1805F3FBF043A090141EA10710001C7
:102D980011F0404F01BF023A890041EA907180006A
:102DA80009425FBF490041EAD0714000013A8305FA
:102DB8004FEAD02040EA41504FEAD12108BF10F035
:102DC800010F01EB025198BF7047013041F100013A
:102DD800704750EA010308BF70475FF4806242F011
:102DE8003D02FFF7B8BF4B001AD25A0DA2F5407248
:102DF800FF3A15D4D2F13F0215DBC90241EA50511E
:102E0800C00241F00041202A22BF08460021B2F149
:102E18002002D141D04048409140D14048407047BD
:102E28000020002170476FF000010846704781F0CC
:102E3800004183F0004383F00043F0B491EA030FAC
:102E480000F18E80841A71EB030603D212197341C4
:102E5800001BB1414FF07F4646F4600616EA410F69
:102E680008BF62E0B6EB410F98BF69E04FEA115422
:102E7800A4EB1357B14341F4801116EA430F07BF7F
:102E880000230022B34343F48013D7F1200634D340
:102E980003FA06F5401941F1000122FA07F5401935
:102EA80023FA07F541EB050102FA06F211F4001FB7
:102EB80019D121F4801101EB0451F0BCB2F1004F9B
:102EC80008BF10EA500F50F1000041F100014FF027
:102ED8007F4343F46003B3EB410F88BF7047090D8C
:102EE80009050020704749085FEA30005FEA3202AE
:102EF80028BF42F001020134DBE7203F402F19D2FE
:102F080023FA07F5401941F10001C7F120061242E2
:102F180018BF012203FA06F52A43C7E711EA560F3C
:102F280004BF00200021F0BC704701F000410020E0
:102F3800F0BC704721F4801101EB0451F0BC7047DC
:102F4800004218BF41F00101B6EB410F04BFF0BCCD
:102F580070474FF0FE4141F478010020F0BC704703
:102F680083F00043841A71EB030705D287F000470A
:102F7800001BB94112197B415FF07F4656F4600689
:102F880016EA430FCAD0B6EB410F40F28C800C0D05
:102F9800A4EB1357C90241EA5051C00241F0004165
:102FA800DB0243EA5253D20243F00043D7F1200632
:102FB8005AD302FA06FCFA4003FA06F52A43FB4004
:102FC8001CEA0C0F18BF42F00102801A9941E30A6B
:102FD8006405640D11F0404F2ED427D1002902BF9B
:102FE80001460020203C00295BD0B1F5803F3FBF5F
:102FF800103C090441EA10410004B1F1807F3FBF51
:10300800083C090241EA10610002B1F1805F3FBF4C
:10301800043C090141EA1071000111F0404F01BF61
:10302800023C890041EA9071800009425FBF013C7F
:10303800490041EAD0714000002C11DD420521F021
:103048000041C00A40EA4150C90A41EAC371460832
:1030580072F1004250F1000051EB0451F0BC70478E
:103068000020D907F0BC7047A7F12007202F0CD209
:10307800C7F1200603FA06F5FB402A4318BF43F0C0
:103088000103C01A61F10001A1E721F00041C00A63
:1030980040EA4150C90A01EB0451F0BC70470020D6
:1030A8000021F0BC7047004218BF41F00101B6EBA7
:1030B800410F7FF44EAFB6EB430F3FF44AAFF0BC7D
:1030C80070470000F0B5574F81EA030517EA010E73
:1030D8001EBF9EEA070F17EA030494EA070F64D09D
:1030E8004EEAD57EA64421EA470141F4801123EA3D
:1030F800470343F48013A1FB0247A0FB036536197D
:103108007D41A1FB034747F10003A0FB0217F61915
:10311800654153F10003094218BF46F00106142720
:10312800B3F5007F47F1000734BF3F4A3F4ABEEB83
:10313800020E31D4C7F1200403FA04F105FA04F0B1
:1031480025FA07F2114326FA07F2104316FA04F497
:1031580021F480114FEA5E0741EA47010AD0B4F131
:10316800004F50F1000041F10001B4F1004F08BFD9
:1031780020F001002B4F1EEA070F10D041EACE7154
:10318800BE453CBFBDE8F04070472649002041EAF3
:10319800CE71BDE8F04070471EEB020EF5D44FEA41
:1031A800CE710020BDE8F0407047394204BF01F0FD
:1031B80000410020004218BF41F001013B4204BF1A
:1031C80003F000430022124218BF43F0010307EA4C
:1031D8000304BC4218BF9EEA070F05D005F0004162
:1031E8000020BDE8F040704721F0004123F0004383
:1031F800B9420FD8BB420DD8002918BF002B09D0FF
:1032080005F0004141F0FE4141F470010020BDE8A5
:10321800F04070474FF0FE4141F478010020BDE8CE
:10322800F04070470000F07F0000F03F0000E03FF2
:10323800F0B581EA030E0EF0004E814F17EA410502
:103248001EBF95EA070F17EA430494EA070F00F038
:10325800C5806D0DA5EB545707F580674FF0004604
:1032680046EAC12444EA5054C00246EAC32343EA6A
:103278005253D202801A9C4104D20018644180182B
:103288005C41013F5B084FEA32020025002140F013
:1032980001004FF0070604E0801A9C4136D34041F4
:1032A8006441801A9C4136D340416441801A9C4154
:1032B80036D340416441801A9C4136D34041644131
:1032C800801A9C4136D340416441013E17D0801A90
:1032D8009C4136D340416441801A9C4136D34041D9
:1032E8006441801A9C4136D340416441090201EB94
:1032F80015612D02454020F0FF004540CCE7801ABB
:103308009C4156D335E080185C41C8D2001864410E
:1033180080185C41C8D20018644180185C41C8D24A
:103328000018644180185C41C8D2001864418018B4
:103338005C41C8D200186441013E17D080185C4136
:10334800C8D20018644180185C41C8D20018644192
:1033580080185C41C8D200186441090201EB15616C
:103368002D02454020F0FF004540CCE780185C4125
:103378001FD3420918BF44F00104490101EBD5618C
:1033880000F01F0000EB451021F4801141EA0E0106
:10339800013041F10001244208BF20F00100B7F5D7
:1033A800006F3EDA013F49DD01EB0751BDE8F0400F
:1033B8007047490101EBD56100F01F0000EB451093
:1033C80021F4801141EA0E01B7F5006F29DA013FB7
:1033D80034DD01EB0751BDE8F0407047004218BFEB
:1033E80041F00101124218BF43F00103B7EB410F4E
:1033F8002CBFB7EB430F1CE0B7EB410F04BFB7EB93
:10340800430F16E017EA410F04BF17EA430F10E015
:1034180017EA410F12D017EA430F02D0B7EB430F58
:103428000CD04EF0FE4141F470010020BDE8F040A0
:1034380070474FF0FE4141F47801F6E77146F4E732
:103448000000E0FF4FF4001C1CEB410F98BF1CEB81
:10345800430F0CD850EA410C08BF52EA430C08D07D
:10346800904208BF99420CBF0120002070470020FD
:103478007047012070474FF4001C1CEB410F98BFA8
:103488001CEB430F11D851EA030C50EA4C0C5CEAD0
:10349800020C0CD004D282428B418041013070472B
:1034A80090429941804101307047002070470120C7
:1034B80070474FF4001C1CEB410F98BF1CEB430FE7
:1034C80011D851EA030C50EA4C0C5CEA020C0CD0FF
:1034D80004D29042994180410130704782428B4129
:1034E80080410130704700207047012070474FF439
:1034F800001C1CEB410F98BF1CEB430F11D851EA7D
:10350800030C50EA4C0C5CEA020C0AD004D290423C
:10351800994180414042704782428B4180414042FC
:103528007047002070474FF4001C1CEB410F98BFF8
:103538001CEB430F11D851EA030C50EA4C0C5CEA1F
:10354800020C0AD004D282428B418041404270472B
:10355800904299418041404270470020704751ECA9
:10356800100B01F00040704751EC100B0128494145
:1035780011F5001F0CBF01200020704751EC100B03
:103588000128494111F5001F8CBF01200020704718
:103598007F2805D8034B185C034B5B5C18407047C9
:1035A800002070471852000098520000A0F16103F3
:1035B800192B98BF20387047A0F14103192B98BFE9
:1035C800203070477F2805D8034B185C034B5B5CA1
:1035D80018407047002070471852000098520000A9
:1035E800A0F16103192B98BF20387047A0F141035F
:1035F800192B98BF203070477F299ABF017001208E
:103608006FF02E0070475AB10A787F2A0AD800B1A5
:103618000260002119605960501A18BF01207047D4
:10362800002070476FF02E007047000070B5041E30
:1036380006DB002C22DD002600201249124D08E08E
:103648006442002C17DD0126F6E764100835002CCB
:1036580007DD14F0010FF8D0D5E90023FFF732FD9C
:10366800F3E72EB102460B4600200649FFF7E0FDBE
:1036780041EC100B70BD00200249F3E7002001491E
:10368800F6E700BF0000F03F8054000038B504465C
:103698000846A26842B1236861685D1C8D4208BF74
:1036A80000208B4208D2D054E3682BB121686268AD
:1036B800914201D22146984723680133236038BDDF
:1036C80070B54C1E09D41646C5B229463046FFF7D8
:1036D800DDFF013CB4F1FF3FF7D170BD10F0100FD2
:1036E80009D108B500F40070002814BF302020204C
:1036F800FFF7E6FF08BD70470028B8BF4042704793
:1037080008B5034B5B689B681B68984708BD00BFFA
:103718002000002008B50921FFF7F2FF08BD0000CE
:1037280000B5FCF755FE024B18445DF804FB00BFDA
:103738000800000003784BB151B10144034613F867
:10374800012F0AB18B42FAD1181A70470346FBE7DA
:103758000346F9E710B584B014460290002203929C
:1037680001911A462146684600F01AF904B010BDC6
:10377800844640EA010313F0030F18D18446202A37
:103788000BD32DE9F007B1E8F807A0E8F807A2F194
:103798002002202AF7D2BDE8F007042A07D351F8FF
:1037A800043B40F8043BA2F10402042AF7D2002AA1
:1037B80005D011F8013B00F8013B013AF9D1604608
:1037C80070478446002A2DD010F0030F04D000F86B
:1037D800011B013A26D0F7E7C9B241EA012141EAC3
:1037E8000141202A12D3A2F120022DE9F0030B4651
:1037F8000C460D460E460F4688468946A0E8FA0351
:10380800203AFBD2BDE8F00320320BD0042A05D3BE
:1038180040F8041B043A05D0042AF9D200F8011B29
:10382800013AFBD160467047024610F0030F16D1EB
:1038380011F0030F13D12DE9F0004FF001374FF0CD
:10384800803351F8044BA4EB070525EA04051D4015
:1038580002D142F8044BF4E7A1F10401F0BC11F8DD
:10386800013B02F8013B002BF9D1704700F101013F
:1038780010F0030F11D010F8012B002A23D010F0FC
:10388800030F0AD010F8012B002A1CD010F0030FE8
:1038980003D010F8012B002A15D02DE970004FF045
:1038A80001324FF0803350F8044BA4EB020525EAAF
:1038B80004051D4000D1F6E7A0F1040070BC10F823
:1038C800012B002AFBD1A0EB0100704753EA020C40
:1038D80061D02DE9F04BB3FA83F51E0007BFB2FAA9
:1038E80082F502FA05F403FA05F41646C5F1200537
:1038F8001EBF22FA05F73C43203556EA044C4FEA2E
:10390800144418BF0134A3464FF00009C84690423A
:1039180071EB030C39D3094207BFB0FA80F700FAFC
:1039280007F6B1FA81F701FA07F6C7F120071EBFBB
:1039380020FA07FC46EA0C062037B6FBFBFC7F1B87
:10394800103F07F01F04C4F120060CFA04F42CFA07
:1039580006F644BF34460026202FA4BF264600247E
:1039680054EA060C08BF012418EB040849EB0609C1
:10397800A4FB027CC01B06FB02CC04FB03CC71EB4E
:103988000C01904271EB030CC5D20B460246494626
:103998004046BDE8F08BB2FBF3F2000000000000E7
:1039A8002DE9F04F2DED0E8B95B003908B460B92C1
:1039B800002303609FED8C9B9FED8DBB9FED8E8B4D
:1039C8009FED8FDB9FED90AB9FED91CB0BF1010746
:1039D8009BF80010002901F02380252904D00398C2
:1039E800FFF754FEBB46F1E7002402E044F0400430
:1039F8002F463D4615F8010BA0F120033E2B00F29F
:103A0800938001A252F823F0F5390000313B000001
:103A1800313B00000D3B0000313B0000313B000012
:103A2800313B0000133B0000313B0000313B0000FC
:103A3800313B00001F3B0000313B0000253B0000EC
:103A4800313B0000313B00002B3B0000313B0000C4
:103A5800313B0000313B0000313B0000313B0000AE
:103A6800313B0000313B0000313B0000313B00009E
:103A7800313B0000313B0000313B0000313B00008E
:103A8800313B0000313B0000313B0000313B00007E
:103A9800313B0000313B0000313B0000313B00006E
:103AA800313B0000313B0000313B0000313B00005E
:103AB800313B0000313B0000313B0000313B00004E
:103AC800313B0000313B0000313B0000313B00003E
:103AD800313B0000313B0000313B0000313B00002E
:103AE800313B0000313B0000313B0000313B00001E
:103AF800313B0000313B0000313B0000313B00000E
:103B0800193B000044F0800472E744F400446FE776
:103B180044F480546CE744F0200469E744F010044E
:103B280066E744F4007463E72A2814D0A0F1300350
:103B3800DBB2092B0DD8002606EB8606303800EBE1
:103B4800460615F8010BA0F13003DBB2092BF3D9B7
:103B58000CE000260AE00B9B1A1D0B921E68002E33
:103B6800BCBF764244F01004BD1C787826EAE6789B
:103B78002E2812D0002674284ED07A284CD06A28D5
:103B880000F0CB806C2800F0CE804C2800F0D98063
:103B9800682800F0E680AB4641E028782A2815D04E
:103BA8000135A0F13003DBB2092B0DD8002606EB56
:103BB8008606303800EB460615F8010BA0F13003F5
:103BC800DBB2092BF3D907E0002607E00B9B1A1D8F
:103BD8000B921E6868780235002ECCDB44F48074A2
:103BE800C9E700BFAFF3008000000000000000003C
:103BF800000000000000E03F00000000000024403A
:103C08000000000000005940000000000000F03FE4
:103C1800A0C8EB85F3CCE17F05F1010B2878782863
:103C280000F2AD80DFE810F00C07AB00AB00AB0092
:103C3800AB00AB00AB00AB00AB00AB00AB00AB0024
:103C4800AB00AB00AB00AB00AB00AB00AB00AB0014
:103C5800AB00AB00AB00AB00AB00AB00AB00AB0004
:103C6800AB00AB00AB00AB00AB00AB00AB00AB00F4
:103C7800AB00AD00AB00AB00AB00AB00AB00AB00E2
:103C8800AB00AB00AB00AB00AB00AB00AB00AB00D4
:103C9800AB00AB00AB00AB00AB00AB00AB00AB00C4
:103CA800AB00AB00AB00AB00AB00AB00AB00AB00B4
:103CB800AB000A0229022E02AB00AB00AB00AB003E
:103CC800AB00AB00AB00AB00AB00AB00AB00AB0094
:103CD800AB00AB00AB00AB000D01AB00AB00AB0021
:103CE800AB00AB00AB00AB00AB00AB00AB00B2006D
:103CF80062010C022B023002AB006201AB00AB0088
:103D0800AB00AB00C3004C01E800AB00AB00DC002B
:103D1800AB005A01AB00AB000F0144F0020405F1FF
:103D2800010B28787BE728786C2804D005F1010B73
:103D380044F0010473E744F0020405F1020B6878CB
:103D48006DE744F00104BA4B1F68002F00F0658648
:103D58000BAB01930096434622460399B847AB46FE
:103D680034E62878682804D005F1010B44F00404EF
:103D780055E744F0080405F1020B68784FE75D4603
:103D8800E1E725210398FFF781FC1FE60B9B1A1D2D
:103D98000B921D7808F1FF38039E324641462046B3
:103DA800FFF79CFC29463046FFF770FCA9E214F0A7
:103DB800080F07D0039B1A680B9B191D0B911B68F2
:103DC8001A7003E614F0020F0B9B03F104020B9226
:103DD8001B68039A12681A601CBF00225A60F5E536
:103DE8000B9B1A1D0B921B68049323465CE20498F4
:103DF800FFF73CFD05466BE20B9B1A1D0B921868FA
:103E0800002102460B46CDE9042304F080038B42CF
:103E18000CBF89464FF0230944F480740826DDE975
:103E2800040102460B46014300F0C485002504F452
:103E380000570DF1340CDFF8FCA1DFF8FCE100F0CD
:103E480084BD44F4005414F0800F07D043F2780383
:103E580043F25809782808BF994601E04FF0000955
:103E680014F4807F01D024F4007414F4804F61D0DE
:103E780014F0020F42D00B9B073323F0070303F122
:103E880008020B92D3E90023CDE9042314F0040FB0
:103E98003DD0BDF810100AB2D317CDE90423DDE9EF
:103EA8000423002A73F100013CDB14F0200F40F0DA
:103EB800BC8004F04003002B18BF4FF0200950E0ED
:103EC80004F08003002B0CBF4FF000094FF03009BD
:103ED80014F4807FC9D024F40074C6E714F4807FFA
:103EE80009D024F400744FF00009BEE744F480447C
:103EF8004FF00009B9E74FF00009B6E70B9B1A1D10
:103F08000B921B681946DA17CDE90412BEE714F0C4
:103F1800080FC4D0DDE9042302F0FF020023CDE935
:103F28000423C2E7524263EB4303CDE904234FF075
:103F38002D0916E014F0020F62D00B9B073323F013
:103F4800070303F108020B92D3E90023CDE9042308
:103F580014F0040F5ED0BDF810108AB20023CDE92A
:103F6800042314F4807F00F0968424F400745838F5
:103F7800202800F21D8501A353F820F0273E0000F9
:103F8800B9490000B9490000B9490000B949000021
:103F9800B9490000B9490000B9490000B949000011
:103FA800B9490000B9490000B949000011490000A9
:103FB800B9490000B9490000B9490000B9490000F1
:103FC80011490000B9490000B9490000B949000089
:103FD800B9490000B9490000A5480000273E000083
:103FE800B9490000B9490000B9490000B9490000C1
:103FF80011490000B9490000B9490000273E0000F6
:104008000B9B1A1D0B921D6800212A460B46CDE911
:1040180004239DE714F0080FA3D0DDE9042302F080
:10402800FF020023CDE904239BE74FF02B0998E713
:1040380044090020585400006854000044F4005417
:1040480044F480640B9B073323F0070303F1080251
:104058000B9293ED007B8DED067BDDE90623CDE920
:10406800042314F4807F12D096B904F44066B6F5A0
:10407800406F14BF002601260AE044F4005444F4BB
:104088000064DFE744F4005444F44064DAE70626A9
:104098009DED060BFFF768FA002840F0EE809DEDD5
:1040A800060BFFF76BFA0A90002840F03E819DED61
:1040B800060BFFF754FA58B144F06004DDE9061224
:1040C800089102F100430993DDE90823CDE90423AF
:1040D8009DED047B13A8B0EE470AF0EE670A00F0E6
:1040E8003DFD139B03EB4303B64A82FB0312DB1728
:1040F800C3EBA203139353EC192BDDE90401FFF77B
:10410800A1F9002800F01F8104F44067B7F5806F1B
:104118000AD0B7F5406F40F08982139BB34203DAA7
:1041280013F1040F80F282821398B0F59A7F40F061
:10413800268153EC1C2BDDE90401FFF779F8CDE962
:1041480004019DED047B8DED067B53EC192B51EC9E
:10415800170BFFF777F9002848D19DED060BFFF7FD
:1041680003FA002840F0178153EC182BDDE906010B
:10417800FFF79FF9B8B1139D0135A94653EC182BE9
:10418800DDE90601FFF754F8CDE90601013553ECE6
:10419800182BFFF78EF90028EFD1CDF84C90DDE908
:1041A8000623CDE904239DED047B8DED067B53ECBE
:1041B8001A2B51EC170BFFF79AF9B8B1139D013D73
:1041C800A94653EC182BDDE90601FEF77BFFCDE984
:1041D8000601013D53EC1A2BFFF789F90028EFD1AE
:1041E800CDF84C90DDE90623CDE90423002E00F03C
:1041F8008184B7F5406F00F000817042FFF716FA2E
:1042080053EC1B2B51EC100BFEF75CFFDDE904238C
:10421800FEF713FE02460B46CDE90623CDE904233B
:1042280053EC182BFFF745F9002840F07B8404F481
:104238000863B3F5006F00F0FE8024F40069731D75
:10424800A8EB03080A9608F1FF3814F4805F00F021
:10425800EB81139D5C4B83FB0523A3EBE57303EB19
:104268004303EB1A0233042B00F2DC81DFE813F07E
:10427800BE01CC011401BE01CC0153EC192BDDE9C0
:104288000601FFF734F9002846D104F400534F4AD9
:104298004F49002B14BF13460B4614F0200F08BFDC
:1042A8000133049324F480734A4ADDE90445214626
:1042B800002C08BF11460A46049123F4007413F435
:1042C800807F3FF494AD31461046FFF733FA054638
:1042D800A8EB0508039A41462046FFF7FFF905F1C8
:1042E800FF3A75B1DDE9046733460136197803985A
:1042F800FFF7CCF90AF1FF3ABAF1FF3FF4D1CDE963
:10430800046714F0100F3FF461AB039A4146202074
:10431800FFF7D6F9FFF75ABB04F400532E492F4A8A
:10432800002B08BF11460491BCE704F400512C4A45
:104338002C4B002908BF1A46049224F48073B3E773
:10434800139B0133139313980130FFF76FF953EC64
:10435800102BDDE90401FFF7E6F80028F0D102E0B0
:10436800139B013B13931398FFF760F953EC102B41
:10437800DDE90401FFF7BBF80028F1D1C4E64042AB
:10438800FFF754F953EC102BDDE90401FEF79AFE10
:10439800CDE90401D5E653EC192BDDE90601FFF759
:1043A800A6F808BB04F40052084B0949002A08BFC4
:1043B8000B4614F0200F08BF0133049324F48073D4
:1043C80072E700BF6766666656555555D8540000B3
:1043D800E0540000F0540000C8540000D05400001D
:1043E800E8540000EC54000004F40053AA49AB4A16
:1043F800002B08BF11460491E0E7751EC6F10100C5
:10440800FFF714F953EC1B2B51EC100BFEF75AFE77
:10441800DDE90423FEF711FD02460B46CDE906232C
:10442800CDE9042353EC182BFFF743F808B12E46C7
:1044380078E32E4681E3102EA8BF10269DED04EBED
:104448003046FFF7F3F853EC102B51EC1E0BFEF738
:1044580039FEFEF7C8FC02460B46CDE90623134396
:1044680000F06E830A220023FFF730FA13437FF42B
:10447800E4AE013E0A220023DDE90601FFF726FA31
:10448800CDE90601002E00F05B830A220023FFF726
:104498001DFA1343EDD0D0E601250A9B23EAE37306
:1044A8000A9314F0600F18BF08F1FF381398FFF74C
:1044B80023F96328C8BF08F1FF389DED047B51EC50
:1044C800170BFEF790FC06460F46FEF782FC0246E5
:1044D8000B46DDE90401FEF7AEFCCDE9040128EA4C
:1044E800E87A19F4047F00F05F8119F0200F00F0DA
:1044F8006C8109F04003002B14BF2D212B21039858
:10450800FFF7C4F819F0100F00F06881644C05F14A
:104518000055013D04EBC508083C302578E8022326
:104528009F4208BF9642C0F06A8129460131C9B24C
:10453800B61A67EB03079F4208BF9642F6D2039864
:10454800FFF7A4F8A045E9D119F4006440F05981B7
:104558000A9B002B40F0648119F0800F40F07882AC
:1045680019F4806F32D009F40059B9F1000F14BF63
:10457800452165210398FFF789F8139B002BC0F2AA
:104588006C812B210398FFF781F81399632900F3B5
:104598006C811399434C84FB0132C917C1EBA2010A
:1045A8003031C9B2039D2846FFF770F8139B84FB8E
:1045B8000324D917C1EBA40101EB8101A3EB41034B
:1045C80003F13001C9B22846FFF760F8BAF1000FCD
:1045D8003FF4FCA920245546013D21460398FFF7E6
:1045E80055F8002DF8D1AA46FFF7F0B953EC182B6F
:1045F800DDE90401FEF766FDCDE90401013D1395EF
:1046080008F1FF38022548E753EC1D2BDDE90401CA
:10461800FEF758FDCDE90401023D1395A8F1020803
:1046280003253AE7554638E701253AE714F4806F41
:104638003AD0139B0E2B38DC0133F71A102FA8BF82
:1046480010270A9714F0800F2FD1B3422DD03D4682
:104658002846FEF7EBFF53EC102BDDE90401FEF7CB
:1046680031FD53EC1B2BFEF7E8FB41EC100B00F07F
:1046780029FBB0EE481AF0EE681A00F079FB53EC0B
:10468800192B51EC100BFEF7DDFE00286CD0013D14
:10469800DED10A9509E000BFC8540000D0540000DC
:1046A800F8540000676666660A9624F48069139BCE
:1046B800103B0A9A50428342A8BF1846FEF7B6FF3D
:1046C8004FF0FF3000F074FA53EC102BDDE90401D1
:1046D800FEF7B3FBCDE904019DED047B8DED067B70
:1046E80013980130FEF7A2FF53EC102BDDE9060109
:1046F800FEF7DFFE10B1139B0133139313980028C4
:104708004ADB102832DCDDE90601FEF76CFB0646C1
:104718000F46FEF75EFB02460B46DDE90601FEF793
:104728008AFBCDE9040100231393002F08BF0A2E4A
:1047380038D3C54B01250135F3E902018F4208BF83
:104748008642F8D20A994B19139A1344A8EB030826
:1047580011B914F0800F01D008F1FF3814F0600F80
:1047680018BF08F1FF38BAE60A959EE7A0F11003D2
:104778001393C0F11000FEF759FF53EC102BDDE93D
:104788000601FEF79FFCFEF72EFB06460F460022A9
:104798000023CDE90423C8E700231393002600274C
:1047A8000125CFE70125CDE7B8F1000F7FF79DAED2
:1047B8002024A8465546013D21460398FEF766FF8A
:1047C800002DF8D1AA4645468FE619F0400F3FF470
:1047D80099AE20210398FEF759FF93E6BAF1000F2E
:1047E8003FF494AE3024A8465546013D214603982F
:1047F800FEF74CFF002DF8D1AA46454686E6294625
:104808009DE6139B002B7FF7A3AE3025013B139346
:1048180029460398FEF73AFF139B002BF6DC97E630
:104828002E210398FEF732FF0A9E102EA8BF1026ED
:1048380026EAE67611E1DDE904453046FEF7F6FEA4
:1048480053EC102B20462946FEF73CFCFEF7CBFA2A
:1048580004460D4616E130212CE12D210398FEF780
:1048680015FF139B5B4213938FE6784C84FB013250
:10487800C917C1EB62113031C9B20398FEF706FFC0
:10488800139A84FB0234D317C3EB6413642101FB2E
:10489800132313937DE60126FFF769BBDDE90401C5
:1048A80002460B4601432DD00DA8002502F0070152
:1048B800303100F8011B0135D10841EA4371DF08A6
:1048C8000A463B4652EA0301F0D1761B26EAE67611
:1048D800A8EB06077F1BB9F1FF0F88BF07F1FF3769
:1048E800B9F1000F00F0F780013F14F4007F00F0E9
:1048F800F680B9F1FF0F60D85FFA89F10398FEF7E7
:10490800C5FE62E00025E0E7DDE90423104619460C
:10491800134308D0002504F4004A06940A962E464C
:1049280004460D4631E00025CFE702F00F00504461
:10493800017805F80C100135110941EA03711809CD
:104948000A46034652EA0301BFD0002FEDD002F019
:104958000F007044017805F80C10ECE714AB9F19B0
:104968000A22002320462946FEF7B0FF303207F816
:104978001C2C01360A22002320462946FEF7A6FFF2
:1049880004460D4654EA05030ED0BAF1000FE5D0EF
:1049980006F00303032BE1D114AB33444FF02C0290
:1049A80003F81C2C0136D9E7069C35460A9E8CE78D
:1049B80000258AE7002588E70027C9F3072103981F
:1049C800FEF764FEB9F1000F96D1DDF80C8042467F
:1049D80039462046FEF782FE424631463020FEF731
:1049E8006FFEB5F1010A0DD414AB1D441D3D0DF148
:1049F800330615F801190398FEF748FEAE42F8D1C0
:104A08004FF0FF3A14F0100F3EF4E0AF039A394626
:104A18002020FEF755FEFEF7D9BFAB46FEF7D6BFFE
:104A280003998B682BB10A6849688A423CBF002108
:104A38009954039B186815B0BDEC0E8BBDE8F08F38
:104A48004FF0FF30F7E700BF005500001F85EB511E
:104A58002E210398FEF71AFE0A9E0A9B9F1B002C24
:104A68003FF4E9AEDDE904451398301AFEF7DEFDA0
:104A780053EC102B20462946FEF724FBFEF7B3F92A
:104A880004460D46DEB106F10056013E324B03EBFB
:104A9800C60676E802239D4208BF9442FFF4DBAEC7
:104AA80030210131C9B2A41A65EB03059D4208BF44
:104AB8009442F6D20398FEF7E9FDB045E9D1002FFC
:104AC8003FF44EAD3024013F21460398FEF7DEFD4A
:104AD800002FF8D144E514F4007F7FF476AF039AF1
:104AE80039462046FEF7FAFDB9F1FF0F3FF664AFED
:104AF800002767E70020FEF799FD53EC1B2B51ECCC
:104B0800100BFEF7DFFADDE90423FEF796F90246FB
:104B18000B46CDE90623CDE9042353EC182BFEF709
:104B2800C8FC68B1139B0133139353EC182BDDE9D0
:104B38000601FEF77DFBCDE90401002E7FF477AB7B
:104B480024F40069A8F1050814F080037FF47BAB16
:104B58000A93FFF77ABB00BFF85400002DE9F04133
:104B680057EC106B80460022002310EE100A3946DD
:104B780010EE104AFEF766FC88B927F0FF4323F4CD
:104B8800E00343F07F55C7F30A5345F40015A3F239
:104B9800FE3345EC104BC8F80030BDE8F081002327
:104BA800C8F8003047EC106BBDE8F0810000000049
:104BB8002DE9F04155EC104B80460022002310EE01
:104BC800100A294610EE106AFEF73CFCB8B9C5F386
:104BD8000A53434440F2FE72934214DCB8F1000FCA
:104BE80001DB002B0FDB002B09DD25F0FF4222F44F
:104BF800E00242EA035747EC106BBDE8F0819FEDF5
:104C0800060BBDE8F081FEF78BFD074B1B680360C0
:104C18009FED030BBDE8F0810000000000000000DC
:104C2800000000000000F07F7C5400002DE9F041F6
:104C380057EC106B00240025804622462B4610EEC8
:104C4800100A3946FEF7FEFB40BBC7F30A53A3F22E
:104C5800FF32002A28DB332A2CDC194C4FF0FF3CAA
:104C6800C2F120052CFA02F004FA05F5A3F21F435D
:104C780024FA03F3284324FA02F1184326EA000031
:104C880027EA010102460B46C8E9002330463946A7
:104C9800FEF7D1F841EC100BBDE8F081C8E90045FA
:104CA80045EC104BBDE8F081C8E9004547EC106BB6
:104CB800BDE8F081C8E9006745EC104BBDE8F0811C
:104CC800FFFF0F002DE9F84355EC104B002200239D
:104CD80010EE100A2946FEF7B5FB50BBC5F30A5182
:104CE800A1F2FF300028A046A94626DB332820DCA5
:104CF8001C4EC0F120074FF0FF3C2CFA00F4A1F243
:104D08001F4106FA07F726FA01F13C430C4326FA3D
:104D180000F508EA040209EA050328EA040029EA7A
:104D28000501134304460D4603D0002871F1000322
:104D380010DB45EC104BBDE8F883002C75F100033F
:104D48004FF0000404DB002545EC104BBDE8F88368
:104D5800054DEEE70022054BFEF76DF804460D46BB
:104D6800E7E700BFFFFF0F000000F0BF0000F03FC3
:104D7800F0B52DED048BB0EE419AF0EE619AB0EEED
:104D8800408AF0EE608A83B00022002351EC110BB8
:104D9800FEF758FB70B9B0EE480AF0EE680AFEF765
:104DA800EDFB98B1B0EE480AF0EE680A03B0BDEC2E
:104DB800048BF0BDFEF7B4FC4F4B504A93ED000B4B
:104DC8001268026003B0BDEC048BF0BDB0EE490A76
:104DD800F0EE690AFEF7D2FB90B90022002351ECED
:104DE800180BFEF72FFB0028DCD1B0EE480AF0EED6
:104DF800680AFEF7B9FB40B13F4B93ED000BD5E7CE
:104E0800B0EE490AF0EE690AD0E7B0EE490AF0EED2
:104E1800690AFEF7A9FB0028C4D1B0EE490AF0EEF2
:104E2800690A00F06DF855EC104B10EE102A2B466D
:104E380051EC180BFEF7FCF941EC100B6846FFF734
:104E4800F5FEDDE9002320462946FEF73BF9024638
:104E58000B4651EC180BFDF7EEFF002206460F46F5
:104E6800002351EC180BFEF75EFBF8B132463B46C7
:104E780020462946FEF7FFFAC0B330463946224697
:104E88002B46FDF7D8FF41EC180B0022002351EC0C
:104E9800180BFEF72CFB002884D051EC180B224687
:104EA8002B46FDF7CAFF41EC180B7BE7224605F1BC
:104EB800004330463946FEF7DEFA38B13046394607
:104EC80022462B46FDF7B9FF06460F46002200236F
:104ED80030463946FEF727FB58B122462B46304666
:104EE8003946FDF7A8FF41EC180B5BE747EC186B58
:104EF800CBE747EC186B55E71052000078540000D8
:0E4F080051EC100B21F0004141EC100B7047F2
:104F1800C650000000000000CA5000000000000059
:104F2800CF50000000000000D45000000000000036
:084F3800C14F0000000003035B
:104F4000844F000000000000904F0000140000207B
:104F5000780000204001002048010020800000204F
:044F60001800000035
:104F6400FFFFFFFFFFFFFFFFFFFFFFFFFFFFFFFF4D
:104F740000000000000000000000D601060100004F
:104F8400090500006D050000B90400007561727424
:104F94005F6C6F675F6261636B656E640000000045
:104FA4006C0500207F000000EC0500204261636B6B
:104FB400656E647320666C757368656400617070F7
:104FC40000000000FB4F00004450000003500000AC
:104FD4004C500000545000005C500000645000002D
:104FE4006C500000745000002025303278002020DE
:104FF40020007C002563001B5B306D002573001BC3
:105004005B313B33316D0025734C6F6773206472E1
:105014006F70706564202825642925730D0A003C8F
:1050240025733E2025733A20000000000000000094
:10503400955000007C50000084500000895000000E
:105044001B5B313B33306D001B5B313B33326D00F6
:105054001B5B313B33336D001B5B313B33346D00E1
:105064001B5B313B33356D001B5B313B33366D00CD
:105074001B5B313B33376D007761726E696E67007D
:10508400696E666F00646562756700466174616C81
:10509400206572726F720053797374656D20726546
:1050A4007365740030313233343536373839414220
:1050B4004344454600000000000000000338FDD8CA
:1050C4007047505253005457494D005541525400B3
:1050D4005541525445000000000000000338FDD83B
:1050E4007047000000000000003000400000000095
:1050F400010000000D0A54574920416363656C6543
:10510400726F6D65746572206578616D706C652071
:10511400737461727465640A002D2D2D2D2D2D2D4F
:105124002D2D2D2D2D2D2D2D2D2D2D2D2D2D2D2DAB
:105134002D2D2D2D2D2D2D2D2D2D0A0A0A00582013
:105144003D20256C66200A0059203D20256C6620F0
:105154000A005A203D20256C66200A005465726DB1
:10516400696E616C005254540053454747455200E0
:105174002D2D2D2D2D2D2D2D2D2D2D2D2D2D2D2D5B
:105184002D2D2D2D2D2D2D2D2D2D2D2D2D2D2D2D4B
:105194002D0A002573204D6F6465206861732062B9
:1051A40065656E207365740A00536F6D6574686974
:1051B4006E6720676F65732077726F6E67207768FC
:1051C400696C652073657474696E67207468652002
:1051D4002573206D6F64650A004163746976697490
:1051E4007900496E6163746976697479004D65610B
:1051F40073757265004E6F726D616C00466F726DEF
:105204006174696E6700536C65657000000000008E
:105214000000F87F2020202020202020206828283B
:10522400282820202020202020202020202020206A
:1052340020202020481010101010101010101010F2
:1052440010101010848484848484848484841010D2
:1052540010101010108181818181810101010101EF
:10526400010101010101010101010101010101101B
:1052740010101010108282828282820202020202C4
:1052840002020202020202020202020202020210EC
:1052940010101020000703200417020108571040C3
:1052A400800000004C5400001053000024540000FF
:1052B40053756E004D6F6E0054756500576564003C
:1052C4005468750046726900536174000000000060
:1052D4004A616E00466562004D6172004170720061
:1052E4004D6179004A756E004A756C00417567001E
:1052F400536570004F6374004E6F7600446563001D
:1053040000000000414D00504D00000048540000D2
:105314004454000044540000445400004454000029
:105324004454000044540000445400004454000019
:1053340044540000FFFFFFFFFFFFFFFFFFFFFFFFDD
:10534400FFFF000084530000B4520000C05300006B
:10535400D4520000085300006853000018540000A1
:1053640074530000256D2F25642F2579000000005B
:10537400256120256220256520255420255900001B
:1053840053756E646179004D6F6E64617900547574
:105394006573646179005765646E6573646179004F
:1053A4005468757273646179004672696461790046
:1053B4005361747572646179000000004A616E750E
:1053C400617279004665627275617279004D61722D
:1053D400636800417072696C004D6179004A756EB2
:1053E40065004A756C79004175677573740053657F
:1053F4007074656D626572004F63746F62657200EC
:105404004E6F76656D62657200446563656D6265B5
:105414007200000025483A254D3A2553000000004B
:1054240099350000B5350000C1350000CD350000C8
:10543400E9350000F5350000013600000F360000A4
:10544400000000002E00000043000000504F5349AC
:105454005800000030313233343536373839616220
:105464006364656630313233343536373839414216
:1054740043444546210000002200000000000000D3
:10548400000024400000000000005940000000001B
:105494000088C3400000000084D797410080E037B3
:1054A40079C34143176E05B5B5B89346F5F93FE99D
:1054B400034F384D321D30F94877825A3CBF737F11
:1054C400DD4F15752D494E46000000002D696E66AE
:1054D400000000002B494E46000000002B696E6658
:1054E400000000004E414E006E616E00286E756C27
:1054F4006C29000001000000000000000A00000008
:10550400000000006400000000000000E803000048
:10551400000000001027000000000000A086010029
:105524000000000040420F00000000008096980038
:105534000000000000E1F5050000000000CA9A3BED
:105544000000000000E40B540200000000E876486C
:10555400170000000010A5D4E800000000A0724E5F
:105564001809000000407A10F35A00000080C6A415
:105574007E8D03000000C16FF286230000008A5D67
:1055840078456301000064A7B3B6E00D0000E88924
:045594000423C78A9B
:105598000000000000200040000000000020004043
:1055A8000000000000000000FF0000000090D00391
:1055B800A8520000A8520000A8520000A8520000FB
:0455C800A8520000E5
:04000003000003797D
:00000001FF
